{
  "_format": "hh-sol-artifact-1",
  "contractName": "Marketplace",
  "sourceName": "contracts/Marketplace.sol",
  "abi": [
    {
      "inputs": [],
      "stateMutability": "nonpayable",
      "type": "constructor"
    },
    {
      "anonymous": false,
      "inputs": [
        {
          "indexed": false,
          "internalType": "uint256",
          "name": "id",
          "type": "uint256"
        },
        {
          "indexed": false,
          "internalType": "string",
          "name": "name",
          "type": "string"
        },
        {
          "indexed": false,
          "internalType": "uint256",
          "name": "price",
          "type": "uint256"
        },
        {
          "indexed": false,
          "internalType": "string",
          "name": "desc",
          "type": "string"
        },
        {
          "indexed": false,
          "internalType": "string",
          "name": "fileURL",
          "type": "string"
        },
        {
          "indexed": false,
          "internalType": "address",
          "name": "seller",
          "type": "address"
        }
      ],
      "name": "ProductCreated",
      "type": "event"
    },
    {
      "anonymous": false,
      "inputs": [
        {
          "indexed": false,
          "internalType": "uint256",
          "name": "id",
          "type": "uint256"
        },
        {
          "indexed": false,
          "internalType": "string",
          "name": "name",
          "type": "string"
        },
        {
          "indexed": false,
          "internalType": "uint256",
          "name": "price",
          "type": "uint256"
        },
        {
          "indexed": false,
          "internalType": "address",
          "name": "seller",
          "type": "address"
        }
      ],
      "name": "ProductPurchased",
      "type": "event"
    },
    {
      "inputs": [
        {
          "internalType": "address",
          "name": "",
          "type": "address"
        },
        {
          "internalType": "uint256",
          "name": "",
          "type": "uint256"
        }
      ],
      "name": "buyers",
      "outputs": [
        {
          "internalType": "uint256",
          "name": "",
          "type": "uint256"
        }
      ],
      "stateMutability": "view",
      "type": "function"
    },
    {
      "inputs": [
        {
          "internalType": "string",
          "name": "_name",
          "type": "string"
        },
        {
          "internalType": "uint256",
          "name": "_price",
          "type": "uint256"
        },
        {
          "internalType": "string",
          "name": "_desc",
          "type": "string"
        },
        {
          "internalType": "string",
          "name": "_fileURL",
          "type": "string"
        }
      ],
      "name": "createProduct",
      "outputs": [],
      "stateMutability": "nonpayable",
      "type": "function"
    },
    {
      "inputs": [],
      "name": "desc",
      "outputs": [
        {
          "internalType": "string",
          "name": "",
          "type": "string"
        }
      ],
      "stateMutability": "view",
      "type": "function"
    },
    {
      "inputs": [],
      "name": "name",
      "outputs": [
        {
          "internalType": "string",
          "name": "",
          "type": "string"
        }
      ],
      "stateMutability": "view",
      "type": "function"
    },
    {
      "inputs": [],
      "name": "productCount",
      "outputs": [
        {
          "internalType": "uint256",
          "name": "",
          "type": "uint256"
        }
      ],
      "stateMutability": "view",
      "type": "function"
    },
    {
      "inputs": [
        {
          "internalType": "uint256",
          "name": "",
          "type": "uint256"
        }
      ],
      "name": "products",
      "outputs": [
        {
          "internalType": "uint256",
          "name": "id",
          "type": "uint256"
        },
        {
          "internalType": "string",
          "name": "name",
          "type": "string"
        },
        {
          "internalType": "uint256",
          "name": "price",
          "type": "uint256"
        },
        {
          "internalType": "string",
          "name": "desc",
          "type": "string"
        },
        {
          "internalType": "string",
          "name": "fileURL",
          "type": "string"
        },
        {
          "internalType": "address",
          "name": "seller",
          "type": "address"
        }
      ],
      "stateMutability": "view",
      "type": "function"
    },
    {
      "inputs": [
        {
          "internalType": "uint256",
          "name": "_id",
          "type": "uint256"
        }
      ],
      "name": "purchaseProduct",
      "outputs": [],
      "stateMutability": "payable",
      "type": "function"
    }
  ],
  "bytecode": "0x608060405260006002553480156200001657600080fd5b506040518060400160405280601281526020017f41706f6c6c6f204d61726b6574706c616365000000000000000000000000000081525060009080519060200190620000649291906200006b565b5062000180565b82805462000079906200011b565b90600052602060002090601f0160209004810192826200009d5760008555620000e9565b82601f10620000b857805160ff1916838001178555620000e9565b82800160010185558215620000e9579182015b82811115620000e8578251825591602001919060010190620000cb565b5b509050620000f89190620000fc565b5090565b5b8082111562000117576000816000905550600101620000fd565b5090565b600060028204905060018216806200013457607f821691505b602082108114156200014b576200014a62000151565b5b50919050565b7f4e487b7100000000000000000000000000000000000000000000000000000000600052602260045260246000fd5b6110d280620001906000396000f3fe6080604052600436106100705760003560e01c806355f150f11161004e57806355f150f1146100e55780637acc0b2014610110578063a0e6f5d314610152578063e0f6ef871461018f57610070565b806306fdde031461007557806307877cff146100a057806338e76a03146100c9575b600080fd5b34801561008157600080fd5b5061008a6101ba565b6040516100979190610c89565b60405180910390f35b3480156100ac57600080fd5b506100c760048036038101906100c29190610b4f565b610248565b005b6100e360048036038101906100de9190610bfa565b6103e1565b005b3480156100f157600080fd5b506100fa610725565b6040516101079190610c89565b60405180910390f35b34801561011c57600080fd5b5061013760048036038101906101329190610bfa565b6107b3565b60405161014996959493929190610d12565b60405180910390f35b34801561015e57600080fd5b5061017960048036038101906101749190610b13565b6109a7565b6040516101869190610cab565b60405180910390f35b34801561019b57600080fd5b506101a46109d8565b6040516101b19190610cab565b60405180910390f35b600080546101c790610f24565b80601f01602080910402602001604051908101604052809291908181526020018280546101f390610f24565b80156102405780601f1061021557610100808354040283529160200191610240565b820191906000526020600020905b81548152906001019060200180831161022357829003601f168201915b505050505081565b600084511161025657600080fd5b600082511161026457600080fd5b6000831161027157600080fd5b6040518060c0016040528060025481526020018581526020018481526020018381526020018281526020013373ffffffffffffffffffffffffffffffffffffffff168152506003600060025481526020019081526020016000206000820151816000015560208201518160010190805190602001906102f19291906109de565b506040820151816002015560608201518160030190805190602001906103189291906109de565b5060808201518160040190805190602001906103359291906109de565b5060a08201518160050160006101000a81548173ffffffffffffffffffffffffffffffffffffffff021916908373ffffffffffffffffffffffffffffffffffffffff1602179055509050506002600081548092919061039390610f87565b91905055507f2b2ebd45aa6e923e4a2d42c030a6255e869127eb5362a947ed84706a792fde7e60025485858585336040516103d396959493929190610d88565b60405180910390a150505050565b6000600360008381526020019081526020016000206040518060c00160405290816000820154815260200160018201805461041b90610f24565b80601f016020809104026020016040519081016040528092919081815260200182805461044790610f24565b80156104945780601f1061046957610100808354040283529160200191610494565b820191906000526020600020905b81548152906001019060200180831161047757829003601f168201915b50505050508152602001600282015481526020016003820180546104b790610f24565b80601f01602080910402602001604051908101604052809291908181526020018280546104e390610f24565b80156105305780601f1061050557610100808354040283529160200191610530565b820191906000526020600020905b81548152906001019060200180831161051357829003601f168201915b5050505050815260200160048201805461054990610f24565b80601f016020809104026020016040519081016040528092919081815260200182805461057590610f24565b80156105c25780601f10610597576101008083540402835291602001916105c2565b820191906000526020600020905b8154815290600101906020018083116105a557829003601f168201915b505050505081526020016005820160009054906101000a900473ffffffffffffffffffffffffffffffffffffffff1673ffffffffffffffffffffffffffffffffffffffff1673ffffffffffffffffffffffffffffffffffffffff1681525050905060008160a0015190508073ffffffffffffffffffffffffffffffffffffffff166108fc349081150290604051600060405180830381858888f19350505050158015610672573d6000803e3d6000fd5b50600460003373ffffffffffffffffffffffffffffffffffffffff1673ffffffffffffffffffffffffffffffffffffffff1681526020019081526020016000208390806001815401808255809150506001900390600052602060002001600090919091909150557fa11e47d046e4d3dbc2056861a52aae8c7121c61d1ef01f11a17be988d5ef2f3160025483602001518460400151336040516107189493929190610cc6565b60405180910390a1505050565b6001805461073290610f24565b80601f016020809104026020016040519081016040528092919081815260200182805461075e90610f24565b80156107ab5780601f10610780576101008083540402835291602001916107ab565b820191906000526020600020905b81548152906001019060200180831161078e57829003601f168201915b505050505081565b60036020528060005260406000206000915090508060000154908060010180546107dc90610f24565b80601f016020809104026020016040519081016040528092919081815260200182805461080890610f24565b80156108555780601f1061082a57610100808354040283529160200191610855565b820191906000526020600020905b81548152906001019060200180831161083857829003601f168201915b50505050509080600201549080600301805461087090610f24565b80601f016020809104026020016040519081016040528092919081815260200182805461089c90610f24565b80156108e95780601f106108be576101008083540402835291602001916108e9565b820191906000526020600020905b8154815290600101906020018083116108cc57829003601f168201915b5050505050908060040180546108fe90610f24565b80601f016020809104026020016040519081016040528092919081815260200182805461092a90610f24565b80156109775780601f1061094c57610100808354040283529160200191610977565b820191906000526020600020905b81548152906001019060200180831161095a57829003601f168201915b5050505050908060050160009054906101000a900473ffffffffffffffffffffffffffffffffffffffff16905086565b600460205281600052604060002081815481106109c357600080fd5b90600052602060002001600091509150505481565b60025481565b8280546109ea90610f24565b90600052602060002090601f016020900481019282610a0c5760008555610a53565b82601f10610a2557805160ff1916838001178555610a53565b82800160010185558215610a53579182015b82811115610a52578251825591602001919060010190610a37565b5b509050610a609190610a64565b5090565b5b80821115610a7d576000816000905550600101610a65565b5090565b6000610a94610a8f84610e23565b610dfe565b905082815260208101848484011115610aac57600080fd5b610ab7848285610ee2565b509392505050565b600081359050610ace8161106e565b92915050565b600082601f830112610ae557600080fd5b8135610af5848260208601610a81565b91505092915050565b600081359050610b0d81611085565b92915050565b60008060408385031215610b2657600080fd5b6000610b3485828601610abf565b9250506020610b4585828601610afe565b9150509250929050565b60008060008060808587031215610b6557600080fd5b600085013567ffffffffffffffff811115610b7f57600080fd5b610b8b87828801610ad4565b9450506020610b9c87828801610afe565b935050604085013567ffffffffffffffff811115610bb957600080fd5b610bc587828801610ad4565b925050606085013567ffffffffffffffff811115610be257600080fd5b610bee87828801610ad4565b91505092959194509250565b600060208284031215610c0c57600080fd5b6000610c1a84828501610afe565b91505092915050565b610c2c81610eac565b82525050565b610c3b81610e70565b82525050565b6000610c4c82610e54565b610c568185610e5f565b9350610c66818560208601610ef1565b610c6f8161105d565b840191505092915050565b610c8381610ea2565b82525050565b60006020820190508181036000830152610ca38184610c41565b905092915050565b6000602082019050610cc06000830184610c7a565b92915050565b6000608082019050610cdb6000830187610c7a565b8181036020830152610ced8186610c41565b9050610cfc6040830185610c7a565b610d096060830184610c23565b95945050505050565b600060c082019050610d276000830189610c7a565b8181036020830152610d398188610c41565b9050610d486040830187610c7a565b8181036060830152610d5a8186610c41565b90508181036080830152610d6e8185610c41565b9050610d7d60a0830184610c32565b979650505050505050565b600060c082019050610d9d6000830189610c7a565b8181036020830152610daf8188610c41565b9050610dbe6040830187610c7a565b8181036060830152610dd08186610c41565b90508181036080830152610de48185610c41565b9050610df360a0830184610c23565b979650505050505050565b6000610e08610e19565b9050610e148282610f56565b919050565b6000604051905090565b600067ffffffffffffffff821115610e3e57610e3d61102e565b5b610e478261105d565b9050602081019050919050565b600081519050919050565b600082825260208201905092915050565b6000610e7b82610e82565b9050919050565b600073ffffffffffffffffffffffffffffffffffffffff82169050919050565b6000819050919050565b6000610eb782610ebe565b9050919050565b6000610ec982610ed0565b9050919050565b6000610edb82610e82565b9050919050565b82818337600083830152505050565b60005b83811015610f0f578082015181840152602081019050610ef4565b83811115610f1e576000848401525b50505050565b60006002820490506001821680610f3c57607f821691505b60208210811415610f5057610f4f610fff565b5b50919050565b610f5f8261105d565b810181811067ffffffffffffffff82111715610f7e57610f7d61102e565b5b80604052505050565b6000610f9282610ea2565b91507fffffffffffffffffffffffffffffffffffffffffffffffffffffffffffffffff821415610fc557610fc4610fd0565b5b600182019050919050565b7f4e487b7100000000000000000000000000000000000000000000000000000000600052601160045260246000fd5b7f4e487b7100000000000000000000000000000000000000000000000000000000600052602260045260246000fd5b7f4e487b7100000000000000000000000000000000000000000000000000000000600052604160045260246000fd5b6000601f19601f8301169050919050565b61107781610e70565b811461108257600080fd5b50565b61108e81610ea2565b811461109957600080fd5b5056fea264697066735822122050a926bad4fc907a02b85638891145e6d116cafeac9ae8b8d34c9d5d6301025f64736f6c63430008040033",
  "linkReferences": {},
  "deployedLinkReferences": {}
}