{
  "_format": "hh-sol-artifact-1",
  "contractName": "Marketplace",
  "sourceName": "contracts/Marketplace.sol",
  "abi": [
    {
      "inputs": [],
      "stateMutability": "nonpayable",
      "type": "constructor"
    },
    {
      "anonymous": false,
      "inputs": [
        {
          "indexed": false,
          "internalType": "uint256",
          "name": "id",
          "type": "uint256"
        },
        {
          "indexed": false,
          "internalType": "string",
          "name": "name",
          "type": "string"
        },
        {
          "indexed": false,
          "internalType": "uint256",
          "name": "price",
          "type": "uint256"
        },
        {
          "indexed": false,
          "internalType": "address payable",
          "name": "owner",
          "type": "address"
        },
        {
          "indexed": false,
          "internalType": "bool",
          "name": "purchased",
          "type": "bool"
        }
      ],
      "name": "ProductCreated",
      "type": "event"
    },
    {
      "anonymous": false,
      "inputs": [
        {
          "indexed": false,
          "internalType": "uint256",
          "name": "id",
          "type": "uint256"
        },
        {
          "indexed": false,
          "internalType": "string",
          "name": "name",
          "type": "string"
        },
        {
          "indexed": false,
          "internalType": "uint256",
          "name": "price",
          "type": "uint256"
        },
        {
          "indexed": false,
          "internalType": "address payable",
          "name": "owner",
          "type": "address"
        },
        {
          "indexed": false,
          "internalType": "bool",
          "name": "purchased",
          "type": "bool"
        }
      ],
      "name": "ProductPurchased",
      "type": "event"
    },
    {
      "inputs": [
        {
          "internalType": "string",
          "name": "_name",
          "type": "string"
        },
        {
          "internalType": "uint256",
          "name": "_price",
          "type": "uint256"
        }
      ],
      "name": "createProduct",
      "outputs": [],
      "stateMutability": "nonpayable",
      "type": "function"
    },
    {
      "inputs": [],
      "name": "getAllProducts",
      "outputs": [
        {
          "components": [
            {
              "internalType": "uint256",
              "name": "id",
              "type": "uint256"
            },
            {
              "internalType": "string",
              "name": "name",
              "type": "string"
            },
            {
              "internalType": "uint256",
              "name": "price",
              "type": "uint256"
            },
            {
              "internalType": "address payable",
              "name": "owner",
              "type": "address"
            },
            {
              "internalType": "bool",
              "name": "purchased",
              "type": "bool"
            }
          ],
          "internalType": "struct Marketplace.Product[]",
          "name": "",
          "type": "tuple[]"
        }
      ],
      "stateMutability": "view",
      "type": "function"
    },
    {
      "inputs": [],
      "name": "name",
      "outputs": [
        {
          "internalType": "string",
          "name": "",
          "type": "string"
        }
      ],
      "stateMutability": "view",
      "type": "function"
    },
    {
      "inputs": [],
      "name": "productCount",
      "outputs": [
        {
          "internalType": "uint256",
          "name": "",
          "type": "uint256"
        }
      ],
      "stateMutability": "view",
      "type": "function"
    },
    {
      "inputs": [
        {
          "internalType": "uint256",
          "name": "",
          "type": "uint256"
        }
      ],
      "name": "products",
      "outputs": [
        {
          "internalType": "uint256",
          "name": "id",
          "type": "uint256"
        },
        {
          "internalType": "string",
          "name": "name",
          "type": "string"
        },
        {
          "internalType": "uint256",
          "name": "price",
          "type": "uint256"
        },
        {
          "internalType": "address payable",
          "name": "owner",
          "type": "address"
        },
        {
          "internalType": "bool",
          "name": "purchased",
          "type": "bool"
        }
      ],
      "stateMutability": "view",
      "type": "function"
    },
    {
      "inputs": [
        {
          "internalType": "uint256",
          "name": "_id",
          "type": "uint256"
        }
      ],
      "name": "purchaseProduct",
      "outputs": [],
      "stateMutability": "payable",
      "type": "function"
    }
  ],
  "bytecode": "0x608060405260006001553480156200001657600080fd5b506040518060400160405280601281526020017f41706f6c6c6f204d61726b6574706c616365000000000000000000000000000081525060009080519060200190620000649291906200006b565b5062000180565b82805462000079906200011b565b90600052602060002090601f0160209004810192826200009d5760008555620000e9565b82601f10620000b857805160ff1916838001178555620000e9565b82800160010185558215620000e9579182015b82811115620000e8578251825591602001919060010190620000cb565b5b509050620000f89190620000fc565b5090565b5b8082111562000117576000816000905550600101620000fd565b5090565b600060028204905060018216806200013457607f821691505b602082108114156200014b576200014a62000151565b5b50919050565b7f4e487b7100000000000000000000000000000000000000000000000000000000600052602260045260246000fd5b61111180620001906000396000f3fe6080604052600436106100555760003560e01c806302ee3a521461005a57806306fdde031461008557806338e76a03146100b05780637acc0b20146100cc578063e0f6ef871461010d578063e9300c6c14610138575b600080fd5b34801561006657600080fd5b5061006f610161565b60405161007c9190610d7b565b60405180910390f35b34801561009157600080fd5b5061009a6102d7565b6040516100a79190610d9d565b60405180910390f35b6100ca60048036038101906100c59190610b87565b610365565b005b3480156100d857600080fd5b506100f360048036038101906100ee9190610b87565b6106b0565b604051610104959493929190610dda565b60405180910390f35b34801561011957600080fd5b5061012261079b565b60405161012f9190610dbf565b60405180910390f35b34801561014457600080fd5b5061015f600480360381019061015a9190610b33565b6107a1565b005b60606003805480602002602001604051908101604052809291908181526020016000905b828210156102ce57838290600052602060002090600402016040518060a0016040529081600082015481526020016001820180546101c290610f7a565b80601f01602080910402602001604051908101604052809291908181526020018280546101ee90610f7a565b801561023b5780601f106102105761010080835404028352916020019161023b565b820191906000526020600020905b81548152906001019060200180831161021e57829003601f168201915b50505050508152602001600282015481526020016003820160009054906101000a900473ffffffffffffffffffffffffffffffffffffffff1673ffffffffffffffffffffffffffffffffffffffff1673ffffffffffffffffffffffffffffffffffffffff1681526020016003820160149054906101000a900460ff16151515158152505081526020019060010190610185565b50505050905090565b600080546102e490610f7a565b80601f016020809104026020016040519081016040528092919081815260200182805461031090610f7a565b801561035d5780601f106103325761010080835404028352916020019161035d565b820191906000526020600020905b81548152906001019060200180831161034057829003601f168201915b505050505081565b6000600260008381526020019081526020016000206040518060a00160405290816000820154815260200160018201805461039f90610f7a565b80601f01602080910402602001604051908101604052809291908181526020018280546103cb90610f7a565b80156104185780601f106103ed57610100808354040283529160200191610418565b820191906000526020600020905b8154815290600101906020018083116103fb57829003601f168201915b50505050508152602001600282015481526020016003820160009054906101000a900473ffffffffffffffffffffffffffffffffffffffff1673ffffffffffffffffffffffffffffffffffffffff1673ffffffffffffffffffffffffffffffffffffffff1681526020016003820160149054906101000a900460ff1615151515815250509050600081606001519050600082600001511180156104c057506001548260000151105b6104c957600080fd5b81604001513410156104da57600080fd5b8160800151156104e957600080fd5b3373ffffffffffffffffffffffffffffffffffffffff168173ffffffffffffffffffffffffffffffffffffffff16141561052257600080fd5b33826060019073ffffffffffffffffffffffffffffffffffffffff16908173ffffffffffffffffffffffffffffffffffffffff1681525050600182608001901515908115158152505081600260008581526020019081526020016000206000820151816000015560208201518160010190805190602001906105a5929190610a13565b506040820151816002015560608201518160030160006101000a81548173ffffffffffffffffffffffffffffffffffffffff021916908373ffffffffffffffffffffffffffffffffffffffff16021790555060808201518160030160146101000a81548160ff0219169083151502179055509050508073ffffffffffffffffffffffffffffffffffffffff166108fc349081150290604051600060405180830381858888f19350505050158015610660573d6000803e3d6000fd5b507f79558d0d7d4d900e2f15c4cc0a665f1acdbe415e44de900ecdd1e5bf12b56f4e600154836020015184604001513360016040516106a3959493929190610dda565b60405180910390a1505050565b60026020528060005260406000206000915090508060000154908060010180546106d990610f7a565b80601f016020809104026020016040519081016040528092919081815260200182805461070590610f7a565b80156107525780601f1061072757610100808354040283529160200191610752565b820191906000526020600020905b81548152906001019060200180831161073557829003601f168201915b5050505050908060020154908060030160009054906101000a900473ffffffffffffffffffffffffffffffffffffffff16908060030160149054906101000a900460ff16905085565b60015481565b60008251116107af57600080fd5b600081116107bc57600080fd5b600160008154809291906107cf90610fdd565b91905055506040518060a0016040528060015481526020018381526020018281526020013373ffffffffffffffffffffffffffffffffffffffff16815260200160001515815250600260006001548152602001908152602001600020600082015181600001556020820151816001019080519060200190610851929190610a13565b506040820151816002015560608201518160030160006101000a81548173ffffffffffffffffffffffffffffffffffffffff021916908373ffffffffffffffffffffffffffffffffffffffff16021790555060808201518160030160146101000a81548160ff02191690831515021790555090505060036040518060a0016040528060015481526020018481526020018381526020013373ffffffffffffffffffffffffffffffffffffffff168152602001600015158152509080600181540180825580915050600190039060005260206000209060040201600090919091909150600082015181600001556020820151816001019080519060200190610959929190610a13565b506040820151816002015560608201518160030160006101000a81548173ffffffffffffffffffffffffffffffffffffffff021916908373ffffffffffffffffffffffffffffffffffffffff16021790555060808201518160030160146101000a81548160ff02191690831515021790555050507fbc59c0c8165864dcceb377dd07d8f431d4303f8e501cb0a0374a10cc68d718366001548383336000604051610a07959493929190610dda565b60405180910390a15050565b828054610a1f90610f7a565b90600052602060002090601f016020900481019282610a415760008555610a88565b82601f10610a5a57805160ff1916838001178555610a88565b82800160010185558215610a88579182015b82811115610a87578251825591602001919060010190610a6c565b5b509050610a959190610a99565b5090565b5b80821115610ab2576000816000905550600101610a9a565b5090565b6000610ac9610ac484610e59565b610e34565b905082815260208101848484011115610ae157600080fd5b610aec848285610f38565b509392505050565b600082601f830112610b0557600080fd5b8135610b15848260208601610ab6565b91505092915050565b600081359050610b2d816110c4565b92915050565b60008060408385031215610b4657600080fd5b600083013567ffffffffffffffff811115610b6057600080fd5b610b6c85828601610af4565b9250506020610b7d85828601610b1e565b9150509250929050565b600060208284031215610b9957600080fd5b6000610ba784828501610b1e565b91505092915050565b6000610bbc8383610ce7565b905092915050565b610bcd81610ef0565b82525050565b610bdc81610ef0565b82525050565b6000610bed82610e9a565b610bf78185610ebd565b935083602082028501610c0985610e8a565b8060005b85811015610c455784840389528151610c268582610bb0565b9450610c3183610eb0565b925060208a01995050600181019050610c0d565b50829750879550505050505092915050565b610c6081610f02565b82525050565b610c6f81610f02565b82525050565b6000610c8082610ea5565b610c8a8185610ece565b9350610c9a818560208601610f47565b610ca3816110b3565b840191505092915050565b6000610cb982610ea5565b610cc38185610edf565b9350610cd3818560208601610f47565b610cdc816110b3565b840191505092915050565b600060a083016000830151610cff6000860182610d5d565b5060208301518482036020860152610d178282610c75565b9150506040830151610d2c6040860182610d5d565b506060830151610d3f6060860182610bc4565b506080830151610d526080860182610c57565b508091505092915050565b610d6681610f2e565b82525050565b610d7581610f2e565b82525050565b60006020820190508181036000830152610d958184610be2565b905092915050565b60006020820190508181036000830152610db78184610cae565b905092915050565b6000602082019050610dd46000830184610d6c565b92915050565b600060a082019050610def6000830188610d6c565b8181036020830152610e018187610cae565b9050610e106040830186610d6c565b610e1d6060830185610bd3565b610e2a6080830184610c66565b9695505050505050565b6000610e3e610e4f565b9050610e4a8282610fac565b919050565b6000604051905090565b600067ffffffffffffffff821115610e7457610e73611084565b5b610e7d826110b3565b9050602081019050919050565b6000819050602082019050919050565b600081519050919050565b600081519050919050565b6000602082019050919050565b600082825260208201905092915050565b600082825260208201905092915050565b600082825260208201905092915050565b6000610efb82610f0e565b9050919050565b60008115159050919050565b600073ffffffffffffffffffffffffffffffffffffffff82169050919050565b6000819050919050565b82818337600083830152505050565b60005b83811015610f65578082015181840152602081019050610f4a565b83811115610f74576000848401525b50505050565b60006002820490506001821680610f9257607f821691505b60208210811415610fa657610fa5611055565b5b50919050565b610fb5826110b3565b810181811067ffffffffffffffff82111715610fd457610fd3611084565b5b80604052505050565b6000610fe882610f2e565b91507fffffffffffffffffffffffffffffffffffffffffffffffffffffffffffffffff82141561101b5761101a611026565b5b600182019050919050565b7f4e487b7100000000000000000000000000000000000000000000000000000000600052601160045260246000fd5b7f4e487b7100000000000000000000000000000000000000000000000000000000600052602260045260246000fd5b7f4e487b7100000000000000000000000000000000000000000000000000000000600052604160045260246000fd5b6000601f19601f8301169050919050565b6110cd81610f2e565b81146110d857600080fd5b5056fea2646970667358221220176b01dc4abfe35b2c28080b56c71646a2852c95ddf85534ea59980f9d82b3a664736f6c63430008040033",
  "linkReferences": {},
  "deployedLinkReferences": {}
}