{
  "_format": "hh-sol-artifact-1",
  "contractName": "Marketplace",
  "sourceName": "contracts/Marketplace.sol",
  "abi": [
    {
      "inputs": [],
      "stateMutability": "nonpayable",
      "type": "constructor"
    },
    {
      "anonymous": false,
      "inputs": [
        {
          "indexed": false,
          "internalType": "uint256",
          "name": "id",
          "type": "uint256"
        },
        {
          "indexed": false,
          "internalType": "string",
          "name": "name",
          "type": "string"
        },
        {
          "indexed": false,
          "internalType": "uint256",
          "name": "price",
          "type": "uint256"
        },
        {
          "indexed": false,
          "internalType": "string",
          "name": "desc",
          "type": "string"
        },
        {
          "indexed": false,
          "internalType": "string",
          "name": "fileURL",
          "type": "string"
        },
        {
          "indexed": false,
          "internalType": "address",
          "name": "seller",
          "type": "address"
        }
      ],
      "name": "ProductCreated",
      "type": "event"
    },
    {
      "anonymous": false,
      "inputs": [
        {
          "indexed": false,
          "internalType": "uint256",
          "name": "id",
          "type": "uint256"
        },
        {
          "indexed": false,
          "internalType": "string",
          "name": "name",
          "type": "string"
        },
        {
          "indexed": false,
          "internalType": "uint256",
          "name": "price",
          "type": "uint256"
        },
        {
          "indexed": false,
          "internalType": "address",
          "name": "seller",
          "type": "address"
        }
      ],
      "name": "ProductPurchased",
      "type": "event"
    },
    {
      "inputs": [
        {
          "internalType": "string",
          "name": "_name",
          "type": "string"
        },
        {
          "internalType": "uint256",
          "name": "_price",
          "type": "uint256"
        },
        {
          "internalType": "string",
          "name": "_desc",
          "type": "string"
        },
        {
          "internalType": "string",
          "name": "_fileURL",
          "type": "string"
        }
      ],
      "name": "createProduct",
      "outputs": [],
      "stateMutability": "nonpayable",
      "type": "function"
    },
    {
      "inputs": [],
      "name": "desc",
      "outputs": [
        {
          "internalType": "string",
          "name": "",
          "type": "string"
        }
      ],
      "stateMutability": "view",
      "type": "function"
    },
    {
      "inputs": [],
      "name": "getAllProducts",
      "outputs": [
        {
          "components": [
            {
              "internalType": "uint256",
              "name": "id",
              "type": "uint256"
            },
            {
              "internalType": "string",
              "name": "name",
              "type": "string"
            },
            {
              "internalType": "uint256",
              "name": "price",
              "type": "uint256"
            },
            {
              "internalType": "string",
              "name": "desc",
              "type": "string"
            },
            {
              "internalType": "string",
              "name": "fileURL",
              "type": "string"
            },
            {
              "internalType": "address",
              "name": "seller",
              "type": "address"
            }
          ],
          "internalType": "struct Marketplace.Product[]",
          "name": "",
          "type": "tuple[]"
        }
      ],
      "stateMutability": "view",
      "type": "function"
    },
    {
      "inputs": [],
      "name": "name",
      "outputs": [
        {
          "internalType": "string",
          "name": "",
          "type": "string"
        }
      ],
      "stateMutability": "view",
      "type": "function"
    },
    {
      "inputs": [],
      "name": "productCount",
      "outputs": [
        {
          "internalType": "uint256",
          "name": "",
          "type": "uint256"
        }
      ],
      "stateMutability": "view",
      "type": "function"
    },
    {
      "inputs": [
        {
          "internalType": "uint256",
          "name": "",
          "type": "uint256"
        }
      ],
      "name": "products",
      "outputs": [
        {
          "internalType": "uint256",
          "name": "id",
          "type": "uint256"
        },
        {
          "internalType": "string",
          "name": "name",
          "type": "string"
        },
        {
          "internalType": "uint256",
          "name": "price",
          "type": "uint256"
        },
        {
          "internalType": "string",
          "name": "desc",
          "type": "string"
        },
        {
          "internalType": "string",
          "name": "fileURL",
          "type": "string"
        },
        {
          "internalType": "address",
          "name": "seller",
          "type": "address"
        }
      ],
      "stateMutability": "view",
      "type": "function"
    },
    {
      "inputs": [
        {
          "internalType": "uint256",
          "name": "_id",
          "type": "uint256"
        }
      ],
      "name": "purchaseProduct",
      "outputs": [],
      "stateMutability": "payable",
      "type": "function"
    }
  ],
  "bytecode": "0x608060405260006002553480156200001657600080fd5b506040518060400160405280601281526020017f41706f6c6c6f204d61726b6574706c616365000000000000000000000000000081525060009080519060200190620000649291906200006b565b5062000180565b82805462000079906200011b565b90600052602060002090601f0160209004810192826200009d5760008555620000e9565b82601f10620000b857805160ff1916838001178555620000e9565b82800160010185558215620000e9579182015b82811115620000e8578251825591602001919060010190620000cb565b5b509050620000f89190620000fc565b5090565b5b8082111562000117576000816000905550600101620000fd565b5090565b600060028204905060018216806200013457607f821691505b602082108114156200014b576200014a62000151565b5b50919050565b7f4e487b7100000000000000000000000000000000000000000000000000000000600052602260045260246000fd5b61168580620001906000396000f3fe6080604052600436106100705760003560e01c806338e76a031161004e57806338e76a03146100f457806355f150f1146101105780637acc0b201461013b578063e0f6ef871461017d57610070565b806302ee3a521461007557806306fdde03146100a057806307877cff146100cb575b600080fd5b34801561008157600080fd5b5061008a6101a8565b60405161009791906111e7565b60405180910390f35b3480156100ac57600080fd5b506100b5610427565b6040516100c29190611209565b60405180910390f35b3480156100d757600080fd5b506100f260048036038101906100ed9190610f36565b6104b5565b005b61010e60048036038101906101099190610fe1565b610772565b005b34801561011c57600080fd5b50610125610acc565b6040516101329190611209565b60405180910390f35b34801561014757600080fd5b50610162600480360381019061015d9190610fe1565b610b5a565b60405161017496959493929190611292565b60405180910390f35b34801561018957600080fd5b50610192610d4e565b60405161019f919061122b565b60405180910390f35b60606004805480602002602001604051908101604052809291908181526020016000905b8282101561041e57838290600052602060002090600602016040518060c001604052908160008201548152602001600182018054610209906114ee565b80601f0160208091040260200160405190810160405280929190818152602001828054610235906114ee565b80156102825780601f1061025757610100808354040283529160200191610282565b820191906000526020600020905b81548152906001019060200180831161026557829003601f168201915b50505050508152602001600282015481526020016003820180546102a5906114ee565b80601f01602080910402602001604051908101604052809291908181526020018280546102d1906114ee565b801561031e5780601f106102f35761010080835404028352916020019161031e565b820191906000526020600020905b81548152906001019060200180831161030157829003601f168201915b50505050508152602001600482018054610337906114ee565b80601f0160208091040260200160405190810160405280929190818152602001828054610363906114ee565b80156103b05780601f10610385576101008083540402835291602001916103b0565b820191906000526020600020905b81548152906001019060200180831161039357829003601f168201915b505050505081526020016005820160009054906101000a900473ffffffffffffffffffffffffffffffffffffffff1673ffffffffffffffffffffffffffffffffffffffff1673ffffffffffffffffffffffffffffffffffffffff1681525050815260200190600101906101cc565b50505050905090565b60008054610434906114ee565b80601f0160208091040260200160405190810160405280929190818152602001828054610460906114ee565b80156104ad5780601f10610482576101008083540402835291602001916104ad565b820191906000526020600020905b81548152906001019060200180831161049057829003601f168201915b505050505081565b60008451116104c357600080fd5b60008251116104d157600080fd5b600083116104de57600080fd5b600260008154809291906104f190611551565b91905055506040518060c0016040528060025481526020018581526020018481526020018381526020018281526020013373ffffffffffffffffffffffffffffffffffffffff16815250600360006002548152602001908152602001600020600082015181600001556020820151816001019080519060200190610576929190610e16565b5060408201518160020155606082015181600301908051906020019061059d929190610e16565b5060808201518160040190805190602001906105ba929190610e16565b5060a08201518160050160006101000a81548173ffffffffffffffffffffffffffffffffffffffff021916908373ffffffffffffffffffffffffffffffffffffffff16021790555090505060046040518060c0016040528060025481526020018681526020018581526020018481526020018381526020013373ffffffffffffffffffffffffffffffffffffffff16815250908060018154018082558091505060019003906000526020600020906006020160009091909190915060008201518160000155602082015181600101908051906020019061069b929190610e16565b506040820151816002015560608201518160030190805190602001906106c2929190610e16565b5060808201518160040190805190602001906106df929190610e16565b5060a08201518160050160006101000a81548173ffffffffffffffffffffffffffffffffffffffff021916908373ffffffffffffffffffffffffffffffffffffffff16021790555050507f2b2ebd45aa6e923e4a2d42c030a6255e869127eb5362a947ed84706a792fde7e600254858585853360405161076496959493929190611308565b60405180910390a150505050565b6107b06040518060400160405280601481526020017f5374617274696e672070757263686173652e2e2e000000000000000000000000815250610d54565b6000600360008381526020019081526020016000206040518060c0016040529081600082015481526020016001820180546107ea906114ee565b80601f0160208091040260200160405190810160405280929190818152602001828054610816906114ee565b80156108635780601f1061083857610100808354040283529160200191610863565b820191906000526020600020905b81548152906001019060200180831161084657829003601f168201915b5050505050815260200160028201548152602001600382018054610886906114ee565b80601f01602080910402602001604051908101604052809291908181526020018280546108b2906114ee565b80156108ff5780601f106108d4576101008083540402835291602001916108ff565b820191906000526020600020905b8154815290600101906020018083116108e257829003601f168201915b50505050508152602001600482018054610918906114ee565b80601f0160208091040260200160405190810160405280929190818152602001828054610944906114ee565b80156109915780601f1061096657610100808354040283529160200191610991565b820191906000526020600020905b81548152906001019060200180831161097457829003601f168201915b505050505081526020016005820160009054906101000a900473ffffffffffffffffffffffffffffffffffffffff1673ffffffffffffffffffffffffffffffffffffffff1673ffffffffffffffffffffffffffffffffffffffff1681525050905060008160a0015190508073ffffffffffffffffffffffffffffffffffffffff166108fc349081150290604051600060405180830381858888f19350505050158015610a41573d6000803e3d6000fd5b507fa11e47d046e4d3dbc2056861a52aae8c7121c61d1ef01f11a17be988d5ef2f316002548360200151846040015133604051610a819493929190611246565b60405180910390a1610ac76040518060400160405280601281526020017f507572636861736520636f6d706c657465640000000000000000000000000000815250610d54565b505050565b60018054610ad9906114ee565b80601f0160208091040260200160405190810160405280929190818152602001828054610b05906114ee565b8015610b525780601f10610b2757610100808354040283529160200191610b52565b820191906000526020600020905b815481529060010190602001808311610b3557829003601f168201915b505050505081565b6003602052806000526040600020600091509050806000015490806001018054610b83906114ee565b80601f0160208091040260200160405190810160405280929190818152602001828054610baf906114ee565b8015610bfc5780601f10610bd157610100808354040283529160200191610bfc565b820191906000526020600020905b815481529060010190602001808311610bdf57829003601f168201915b505050505090806002015490806003018054610c17906114ee565b80601f0160208091040260200160405190810160405280929190818152602001828054610c43906114ee565b8015610c905780601f10610c6557610100808354040283529160200191610c90565b820191906000526020600020905b815481529060010190602001808311610c7357829003601f168201915b505050505090806004018054610ca5906114ee565b80601f0160208091040260200160405190810160405280929190818152602001828054610cd1906114ee565b8015610d1e5780601f10610cf357610100808354040283529160200191610d1e565b820191906000526020600020905b815481529060010190602001808311610d0157829003601f168201915b5050505050908060050160009054906101000a900473ffffffffffffffffffffffffffffffffffffffff16905086565b60025481565b610dea81604051602401610d689190611209565b6040516020818303038152906040527f41304fac000000000000000000000000000000000000000000000000000000007bffffffffffffffffffffffffffffffffffffffffffffffffffffffff19166020820180517bffffffffffffffffffffffffffffffffffffffffffffffffffffffff8381831617835250505050610ded565b50565b60008151905060006a636f6e736f6c652e6c6f679050602083016000808483855afa5050505050565b828054610e22906114ee565b90600052602060002090601f016020900481019282610e445760008555610e8b565b82601f10610e5d57805160ff1916838001178555610e8b565b82800160010185558215610e8b579182015b82811115610e8a578251825591602001919060010190610e6f565b5b509050610e989190610e9c565b5090565b5b80821115610eb5576000816000905550600101610e9d565b5090565b6000610ecc610ec7846113a3565b61137e565b905082815260208101848484011115610ee457600080fd5b610eef8482856114ac565b509392505050565b600082601f830112610f0857600080fd5b8135610f18848260208601610eb9565b91505092915050565b600081359050610f3081611638565b92915050565b60008060008060808587031215610f4c57600080fd5b600085013567ffffffffffffffff811115610f6657600080fd5b610f7287828801610ef7565b9450506020610f8387828801610f21565b935050604085013567ffffffffffffffff811115610fa057600080fd5b610fac87828801610ef7565b925050606085013567ffffffffffffffff811115610fc957600080fd5b610fd587828801610ef7565b91505092959194509250565b600060208284031215610ff357600080fd5b600061100184828501610f21565b91505092915050565b60006110168383611132565b905092915050565b61102781611476565b82525050565b6110368161143a565b82525050565b6110458161143a565b82525050565b6000611056826113e4565b6110608185611407565b935083602082028501611072856113d4565b8060005b858110156110ae578484038952815161108f858261100a565b945061109a836113fa565b925060208a01995050600181019050611076565b50829750879550505050505092915050565b60006110cb826113ef565b6110d58185611418565b93506110e58185602086016114bb565b6110ee81611627565b840191505092915050565b6000611104826113ef565b61110e8185611429565b935061111e8185602086016114bb565b61112781611627565b840191505092915050565b600060c08301600083015161114a60008601826111c9565b506020830151848203602086015261116282826110c0565b915050604083015161117760408601826111c9565b506060830151848203606086015261118f82826110c0565b915050608083015184820360808601526111a982826110c0565b91505060a08301516111be60a086018261102d565b508091505092915050565b6111d28161146c565b82525050565b6111e18161146c565b82525050565b60006020820190508181036000830152611201818461104b565b905092915050565b6000602082019050818103600083015261122381846110f9565b905092915050565b600060208201905061124060008301846111d8565b92915050565b600060808201905061125b60008301876111d8565b818103602083015261126d81866110f9565b905061127c60408301856111d8565b611289606083018461101e565b95945050505050565b600060c0820190506112a760008301896111d8565b81810360208301526112b981886110f9565b90506112c860408301876111d8565b81810360608301526112da81866110f9565b905081810360808301526112ee81856110f9565b90506112fd60a083018461103c565b979650505050505050565b600060c08201905061131d60008301896111d8565b818103602083015261132f81886110f9565b905061133e60408301876111d8565b818103606083015261135081866110f9565b9050818103608083015261136481856110f9565b905061137360a083018461101e565b979650505050505050565b6000611388611399565b90506113948282611520565b919050565b6000604051905090565b600067ffffffffffffffff8211156113be576113bd6115f8565b5b6113c782611627565b9050602081019050919050565b6000819050602082019050919050565b600081519050919050565b600081519050919050565b6000602082019050919050565b600082825260208201905092915050565b600082825260208201905092915050565b600082825260208201905092915050565b60006114458261144c565b9050919050565b600073ffffffffffffffffffffffffffffffffffffffff82169050919050565b6000819050919050565b600061148182611488565b9050919050565b60006114938261149a565b9050919050565b60006114a58261144c565b9050919050565b82818337600083830152505050565b60005b838110156114d95780820151818401526020810190506114be565b838111156114e8576000848401525b50505050565b6000600282049050600182168061150657607f821691505b6020821081141561151a576115196115c9565b5b50919050565b61152982611627565b810181811067ffffffffffffffff82111715611548576115476115f8565b5b80604052505050565b600061155c8261146c565b91507fffffffffffffffffffffffffffffffffffffffffffffffffffffffffffffffff82141561158f5761158e61159a565b5b600182019050919050565b7f4e487b7100000000000000000000000000000000000000000000000000000000600052601160045260246000fd5b7f4e487b7100000000000000000000000000000000000000000000000000000000600052602260045260246000fd5b7f4e487b7100000000000000000000000000000000000000000000000000000000600052604160045260246000fd5b6000601f19601f8301169050919050565b6116418161146c565b811461164c57600080fd5b5056fea2646970667358221220757b2dce69df11d59a688ca2f45c81a0eab48473d744ea98cf55623221b3cddb64736f6c63430008040033",
  "linkReferences": {},
  "deployedLinkReferences": {}
}