{
  "_format": "hh-sol-artifact-1",
  "contractName": "Marketplace",
  "sourceName": "contracts/Marketplace.sol",
  "abi": [
    {
      "inputs": [],
      "stateMutability": "nonpayable",
      "type": "constructor"
    },
    {
      "anonymous": false,
      "inputs": [
        {
          "indexed": false,
          "internalType": "uint256",
          "name": "id",
          "type": "uint256"
        },
        {
          "indexed": false,
          "internalType": "string",
          "name": "name",
          "type": "string"
        },
        {
          "indexed": false,
          "internalType": "string",
          "name": "desc",
          "type": "string"
        },
        {
          "indexed": false,
          "internalType": "uint256",
          "name": "price",
          "type": "uint256"
        },
        {
          "indexed": false,
          "internalType": "address",
          "name": "seller",
          "type": "address"
        }
      ],
      "name": "ProductCreated",
      "type": "event"
    },
    {
      "anonymous": false,
      "inputs": [
        {
          "indexed": false,
          "internalType": "uint256",
          "name": "id",
          "type": "uint256"
        },
        {
          "indexed": false,
          "internalType": "string",
          "name": "name",
          "type": "string"
        },
        {
          "indexed": false,
          "internalType": "uint256",
          "name": "price",
          "type": "uint256"
        },
        {
          "indexed": false,
          "internalType": "address",
          "name": "seller",
          "type": "address"
        }
      ],
      "name": "ProductPurchased",
      "type": "event"
    },
    {
      "inputs": [
        {
          "internalType": "string",
          "name": "_name",
          "type": "string"
        },
        {
          "internalType": "string",
          "name": "_desc",
          "type": "string"
        },
        {
          "internalType": "uint256",
          "name": "_price",
          "type": "uint256"
        }
      ],
      "name": "createProduct",
      "outputs": [],
      "stateMutability": "nonpayable",
      "type": "function"
    },
    {
      "inputs": [],
      "name": "desc",
      "outputs": [
        {
          "internalType": "string",
          "name": "",
          "type": "string"
        }
      ],
      "stateMutability": "view",
      "type": "function"
    },
    {
      "inputs": [],
      "name": "getAllProducts",
      "outputs": [
        {
          "components": [
            {
              "internalType": "uint256",
              "name": "id",
              "type": "uint256"
            },
            {
              "internalType": "string",
              "name": "name",
              "type": "string"
            },
            {
              "internalType": "uint256",
              "name": "price",
              "type": "uint256"
            },
            {
              "internalType": "string",
              "name": "desc",
              "type": "string"
            },
            {
              "internalType": "address",
              "name": "seller",
              "type": "address"
            }
          ],
          "internalType": "struct Marketplace.Product[]",
          "name": "",
          "type": "tuple[]"
        }
      ],
      "stateMutability": "view",
      "type": "function"
    },
    {
      "inputs": [],
      "name": "name",
      "outputs": [
        {
          "internalType": "string",
          "name": "",
          "type": "string"
        }
      ],
      "stateMutability": "view",
      "type": "function"
    },
    {
      "inputs": [],
      "name": "productCount",
      "outputs": [
        {
          "internalType": "uint256",
          "name": "",
          "type": "uint256"
        }
      ],
      "stateMutability": "view",
      "type": "function"
    },
    {
      "inputs": [
        {
          "internalType": "uint256",
          "name": "",
          "type": "uint256"
        }
      ],
      "name": "products",
      "outputs": [
        {
          "internalType": "uint256",
          "name": "id",
          "type": "uint256"
        },
        {
          "internalType": "string",
          "name": "name",
          "type": "string"
        },
        {
          "internalType": "uint256",
          "name": "price",
          "type": "uint256"
        },
        {
          "internalType": "string",
          "name": "desc",
          "type": "string"
        },
        {
          "internalType": "address",
          "name": "seller",
          "type": "address"
        }
      ],
      "stateMutability": "view",
      "type": "function"
    },
    {
      "inputs": [
        {
          "internalType": "uint256",
          "name": "_id",
          "type": "uint256"
        }
      ],
      "name": "purchaseProduct",
      "outputs": [],
      "stateMutability": "payable",
      "type": "function"
    }
  ],
  "bytecode": "0x608060405260006002553480156200001657600080fd5b506040518060400160405280601281526020017f41706f6c6c6f204d61726b6574706c616365000000000000000000000000000081525060009080519060200190620000649291906200006b565b5062000180565b82805462000079906200011b565b90600052602060002090601f0160209004810192826200009d5760008555620000e9565b82601f10620000b857805160ff1916838001178555620000e9565b82800160010185558215620000e9579182015b82811115620000e8578251825591602001919060010190620000cb565b5b509050620000f89190620000fc565b5090565b5b8082111562000117576000816000905550600101620000fd565b5090565b600060028204905060018216806200013457607f821691505b602082108114156200014b576200014a62000151565b5b50919050565b7f4e487b7100000000000000000000000000000000000000000000000000000000600052602260045260246000fd5b61141980620001906000396000f3fe6080604052600436106100705760003560e01c806355f150f11161004e57806355f150f1146100e75780637acc0b2014610112578063a142220914610153578063e0f6ef871461017c57610070565b806302ee3a521461007557806306fdde03146100a057806338e76a03146100cb575b600080fd5b34801561008157600080fd5b5061008a6101a7565b6040516100979190610fa5565b60405180910390f35b3480156100ac57600080fd5b506100b5610394565b6040516100c29190610fc7565b60405180910390f35b6100e560048036038101906100e09190610db9565b610422565b005b3480156100f357600080fd5b506100fc6106ea565b6040516101099190610fc7565b60405180910390f35b34801561011e57600080fd5b5061013960048036038101906101349190610db9565b610778565b60405161014a9594939291906110b1565b60405180910390f35b34801561015f57600080fd5b5061017a60048036038101906101759190610d3a565b6108de565b005b34801561018857600080fd5b50610191610b52565b60405161019e9190610fe9565b60405180910390f35b60606004805480602002602001604051908101604052809291908181526020016000905b8282101561038b57838290600052602060002090600502016040518060a00160405290816000820154815260200160018201805461020890611282565b80601f016020809104026020016040519081016040528092919081815260200182805461023490611282565b80156102815780601f1061025657610100808354040283529160200191610281565b820191906000526020600020905b81548152906001019060200180831161026457829003601f168201915b50505050508152602001600282015481526020016003820180546102a490611282565b80601f01602080910402602001604051908101604052809291908181526020018280546102d090611282565b801561031d5780601f106102f25761010080835404028352916020019161031d565b820191906000526020600020905b81548152906001019060200180831161030057829003601f168201915b505050505081526020016004820160009054906101000a900473ffffffffffffffffffffffffffffffffffffffff1673ffffffffffffffffffffffffffffffffffffffff1673ffffffffffffffffffffffffffffffffffffffff1681525050815260200190600101906101cb565b50505050905090565b600080546103a190611282565b80601f01602080910402602001604051908101604052809291908181526020018280546103cd90611282565b801561041a5780601f106103ef5761010080835404028352916020019161041a565b820191906000526020600020905b8154815290600101906020018083116103fd57829003601f168201915b505050505081565b6104606040518060400160405280601481526020017f5374617274696e672070757263686173652e2e2e000000000000000000000000815250610b58565b6000600360008381526020019081526020016000206040518060a00160405290816000820154815260200160018201805461049a90611282565b80601f01602080910402602001604051908101604052809291908181526020018280546104c690611282565b80156105135780601f106104e857610100808354040283529160200191610513565b820191906000526020600020905b8154815290600101906020018083116104f657829003601f168201915b505050505081526020016002820154815260200160038201805461053690611282565b80601f016020809104026020016040519081016040528092919081815260200182805461056290611282565b80156105af5780601f10610584576101008083540402835291602001916105af565b820191906000526020600020905b81548152906001019060200180831161059257829003601f168201915b505050505081526020016004820160009054906101000a900473ffffffffffffffffffffffffffffffffffffffff1673ffffffffffffffffffffffffffffffffffffffff1673ffffffffffffffffffffffffffffffffffffffff168152505090506000816080015190508073ffffffffffffffffffffffffffffffffffffffff166108fc349081150290604051600060405180830381858888f1935050505015801561065f573d6000803e3d6000fd5b507fa11e47d046e4d3dbc2056861a52aae8c7121c61d1ef01f11a17be988d5ef2f31600254836020015184604001513360405161069f9493929190611065565b60405180910390a16106e56040518060400160405280601281526020017f507572636861736520636f6d706c657465640000000000000000000000000000815250610b58565b505050565b600180546106f790611282565b80601f016020809104026020016040519081016040528092919081815260200182805461072390611282565b80156107705780601f1061074557610100808354040283529160200191610770565b820191906000526020600020905b81548152906001019060200180831161075357829003601f168201915b505050505081565b60036020528060005260406000206000915090508060000154908060010180546107a190611282565b80601f01602080910402602001604051908101604052809291908181526020018280546107cd90611282565b801561081a5780601f106107ef5761010080835404028352916020019161081a565b820191906000526020600020905b8154815290600101906020018083116107fd57829003601f168201915b50505050509080600201549080600301805461083590611282565b80601f016020809104026020016040519081016040528092919081815260200182805461086190611282565b80156108ae5780601f10610883576101008083540402835291602001916108ae565b820191906000526020600020905b81548152906001019060200180831161089157829003601f168201915b5050505050908060040160009054906101000a900473ffffffffffffffffffffffffffffffffffffffff16905085565b60008351116108ec57600080fd5b60008251116108fa57600080fd5b6000811161090757600080fd5b6002600081548092919061091a906112e5565b91905055506040518060a0016040528060025481526020018481526020018281526020018381526020013373ffffffffffffffffffffffffffffffffffffffff16815250600360006002548152602001908152602001600020600082015181600001556020820151816001019080519060200190610999929190610c1a565b506040820151816002015560608201518160030190805190602001906109c0929190610c1a565b5060808201518160040160006101000a81548173ffffffffffffffffffffffffffffffffffffffff021916908373ffffffffffffffffffffffffffffffffffffffff16021790555090505060046040518060a0016040528060025481526020018581526020018381526020018481526020013373ffffffffffffffffffffffffffffffffffffffff168152509080600181540180825580915050600190039060005260206000209060050201600090919091909150600082015181600001556020820151816001019080519060200190610a9b929190610c1a565b50604082015181600201556060820151816003019080519060200190610ac2929190610c1a565b5060808201518160040160006101000a81548173ffffffffffffffffffffffffffffffffffffffff021916908373ffffffffffffffffffffffffffffffffffffffff16021790555050507f965ec429b52d166e7f39d678643fac1a6aba80af304381b7ec3f6326d5ebea5a60025484848433604051610b45959493929190611004565b60405180910390a1505050565b60025481565b610bee81604051602401610b6c9190610fc7565b6040516020818303038152906040527f41304fac000000000000000000000000000000000000000000000000000000007bffffffffffffffffffffffffffffffffffffffffffffffffffffffff19166020820180517bffffffffffffffffffffffffffffffffffffffffffffffffffffffff8381831617835250505050610bf1565b50565b60008151905060006a636f6e736f6c652e6c6f679050602083016000808483855afa5050505050565b828054610c2690611282565b90600052602060002090601f016020900481019282610c485760008555610c8f565b82601f10610c6157805160ff1916838001178555610c8f565b82800160010185558215610c8f579182015b82811115610c8e578251825591602001919060010190610c73565b5b509050610c9c9190610ca0565b5090565b5b80821115610cb9576000816000905550600101610ca1565b5090565b6000610cd0610ccb84611137565b611112565b905082815260208101848484011115610ce857600080fd5b610cf3848285611240565b509392505050565b600082601f830112610d0c57600080fd5b8135610d1c848260208601610cbd565b91505092915050565b600081359050610d34816113cc565b92915050565b600080600060608486031215610d4f57600080fd5b600084013567ffffffffffffffff811115610d6957600080fd5b610d7586828701610cfb565b935050602084013567ffffffffffffffff811115610d9257600080fd5b610d9e86828701610cfb565b9250506040610daf86828701610d25565b9150509250925092565b600060208284031215610dcb57600080fd5b6000610dd984828501610d25565b91505092915050565b6000610dee8383610f0a565b905092915050565b610dff8161120a565b82525050565b610e0e816111ce565b82525050565b610e1d816111ce565b82525050565b6000610e2e82611178565b610e38818561119b565b935083602082028501610e4a85611168565b8060005b85811015610e865784840389528151610e678582610de2565b9450610e728361118e565b925060208a01995050600181019050610e4e565b50829750879550505050505092915050565b6000610ea382611183565b610ead81856111ac565b9350610ebd81856020860161124f565b610ec6816113bb565b840191505092915050565b6000610edc82611183565b610ee681856111bd565b9350610ef681856020860161124f565b610eff816113bb565b840191505092915050565b600060a083016000830151610f226000860182610f87565b5060208301518482036020860152610f3a8282610e98565b9150506040830151610f4f6040860182610f87565b5060608301518482036060860152610f678282610e98565b9150506080830151610f7c6080860182610e05565b508091505092915050565b610f9081611200565b82525050565b610f9f81611200565b82525050565b60006020820190508181036000830152610fbf8184610e23565b905092915050565b60006020820190508181036000830152610fe18184610ed1565b905092915050565b6000602082019050610ffe6000830184610f96565b92915050565b600060a0820190506110196000830188610f96565b818103602083015261102b8187610ed1565b9050818103604083015261103f8186610ed1565b905061104e6060830185610f96565b61105b6080830184610df6565b9695505050505050565b600060808201905061107a6000830187610f96565b818103602083015261108c8186610ed1565b905061109b6040830185610f96565b6110a86060830184610df6565b95945050505050565b600060a0820190506110c66000830188610f96565b81810360208301526110d88187610ed1565b90506110e76040830186610f96565b81810360608301526110f98185610ed1565b90506111086080830184610e14565b9695505050505050565b600061111c61112d565b905061112882826112b4565b919050565b6000604051905090565b600067ffffffffffffffff8211156111525761115161138c565b5b61115b826113bb565b9050602081019050919050565b6000819050602082019050919050565b600081519050919050565b600081519050919050565b6000602082019050919050565b600082825260208201905092915050565b600082825260208201905092915050565b600082825260208201905092915050565b60006111d9826111e0565b9050919050565b600073ffffffffffffffffffffffffffffffffffffffff82169050919050565b6000819050919050565b60006112158261121c565b9050919050565b60006112278261122e565b9050919050565b6000611239826111e0565b9050919050565b82818337600083830152505050565b60005b8381101561126d578082015181840152602081019050611252565b8381111561127c576000848401525b50505050565b6000600282049050600182168061129a57607f821691505b602082108114156112ae576112ad61135d565b5b50919050565b6112bd826113bb565b810181811067ffffffffffffffff821117156112dc576112db61138c565b5b80604052505050565b60006112f082611200565b91507fffffffffffffffffffffffffffffffffffffffffffffffffffffffffffffffff8214156113235761132261132e565b5b600182019050919050565b7f4e487b7100000000000000000000000000000000000000000000000000000000600052601160045260246000fd5b7f4e487b7100000000000000000000000000000000000000000000000000000000600052602260045260246000fd5b7f4e487b7100000000000000000000000000000000000000000000000000000000600052604160045260246000fd5b6000601f19601f8301169050919050565b6113d581611200565b81146113e057600080fd5b5056fea26469706673582212204c58d4b8f9895b0981fee65bde8f1911996d11fbc0cb62ddcabf657b6980fd6064736f6c63430008040033",
  "linkReferences": {},
  "deployedLinkReferences": {}
}