{
  "_format": "hh-sol-artifact-1",
  "contractName": "Marketplace",
  "sourceName": "contracts/Marketplace.sol",
  "abi": [
    {
      "inputs": [],
      "stateMutability": "nonpayable",
      "type": "constructor"
    },
    {
      "anonymous": false,
      "inputs": [
        {
          "indexed": false,
          "internalType": "uint256",
          "name": "id",
          "type": "uint256"
        },
        {
          "indexed": false,
          "internalType": "string",
          "name": "name",
          "type": "string"
        },
        {
          "indexed": false,
          "internalType": "uint256",
          "name": "price",
          "type": "uint256"
        },
        {
          "indexed": false,
          "internalType": "string",
          "name": "desc",
          "type": "string"
        },
        {
          "indexed": false,
          "internalType": "string",
          "name": "fileURL",
          "type": "string"
        },
        {
          "indexed": false,
          "internalType": "address",
          "name": "seller",
          "type": "address"
        }
      ],
      "name": "ProductCreated",
      "type": "event"
    },
    {
      "anonymous": false,
      "inputs": [
        {
          "indexed": false,
          "internalType": "uint256",
          "name": "id",
          "type": "uint256"
        },
        {
          "indexed": false,
          "internalType": "string",
          "name": "name",
          "type": "string"
        },
        {
          "indexed": false,
          "internalType": "uint256",
          "name": "price",
          "type": "uint256"
        },
        {
          "indexed": false,
          "internalType": "address",
          "name": "seller",
          "type": "address"
        }
      ],
      "name": "ProductPurchased",
      "type": "event"
    },
    {
      "inputs": [
        {
          "internalType": "address",
          "name": "",
          "type": "address"
        },
        {
          "internalType": "uint256",
          "name": "",
          "type": "uint256"
        }
      ],
      "name": "buyers",
      "outputs": [
        {
          "internalType": "uint256",
          "name": "",
          "type": "uint256"
        }
      ],
      "stateMutability": "view",
      "type": "function"
    },
    {
      "inputs": [
        {
          "internalType": "string",
          "name": "_name",
          "type": "string"
        },
        {
          "internalType": "uint256",
          "name": "_price",
          "type": "uint256"
        },
        {
          "internalType": "string",
          "name": "_desc",
          "type": "string"
        },
        {
          "internalType": "string",
          "name": "_fileURL",
          "type": "string"
        }
      ],
      "name": "createProduct",
      "outputs": [],
      "stateMutability": "nonpayable",
      "type": "function"
    },
    {
      "inputs": [],
      "name": "desc",
      "outputs": [
        {
          "internalType": "string",
          "name": "",
          "type": "string"
        }
      ],
      "stateMutability": "view",
      "type": "function"
    },
    {
      "inputs": [],
      "name": "getBuyerLength",
      "outputs": [
        {
          "internalType": "uint256",
          "name": "",
          "type": "uint256"
        }
      ],
      "stateMutability": "view",
      "type": "function"
    },
    {
      "inputs": [],
      "name": "name",
      "outputs": [
        {
          "internalType": "string",
          "name": "",
          "type": "string"
        }
      ],
      "stateMutability": "view",
      "type": "function"
    },
    {
      "inputs": [],
      "name": "productCount",
      "outputs": [
        {
          "internalType": "uint256",
          "name": "",
          "type": "uint256"
        }
      ],
      "stateMutability": "view",
      "type": "function"
    },
    {
      "inputs": [
        {
          "internalType": "uint256",
          "name": "",
          "type": "uint256"
        }
      ],
      "name": "products",
      "outputs": [
        {
          "internalType": "uint256",
          "name": "id",
          "type": "uint256"
        },
        {
          "internalType": "string",
          "name": "name",
          "type": "string"
        },
        {
          "internalType": "uint256",
          "name": "price",
          "type": "uint256"
        },
        {
          "internalType": "string",
          "name": "desc",
          "type": "string"
        },
        {
          "internalType": "string",
          "name": "fileURL",
          "type": "string"
        },
        {
          "internalType": "address",
          "name": "seller",
          "type": "address"
        }
      ],
      "stateMutability": "view",
      "type": "function"
    },
    {
      "inputs": [
        {
          "internalType": "uint256",
          "name": "_id",
          "type": "uint256"
        }
      ],
      "name": "purchaseProduct",
      "outputs": [],
      "stateMutability": "payable",
      "type": "function"
    }
  ],
  "bytecode": "0x608060405260006002553480156200001657600080fd5b506040518060400160405280601281526020017f41706f6c6c6f204d61726b6574706c616365000000000000000000000000000081525060009080519060200190620000649291906200006b565b5062000180565b82805462000079906200011b565b90600052602060002090601f0160209004810192826200009d5760008555620000e9565b82601f10620000b857805160ff1916838001178555620000e9565b82800160010185558215620000e9579182015b82811115620000e8578251825591602001919060010190620000cb565b5b509050620000f89190620000fc565b5090565b5b8082111562000117576000816000905550600101620000fd565b5090565b600060028204905060018216806200013457607f821691505b602082108114156200014b576200014a62000151565b5b50919050565b7f4e487b7100000000000000000000000000000000000000000000000000000000600052602260045260246000fd5b61115280620001906000396000f3fe60806040526004361061007b5760003560e01c80637acc0b201161004e5780637acc0b201461011b57806396fe05821461015d578063a0e6f5d314610188578063e0f6ef87146101c55761007b565b806306fdde031461008057806307877cff146100ab57806338e76a03146100d457806355f150f1146100f0575b600080fd5b34801561008c57600080fd5b506100956101f0565b6040516100a29190610d09565b60405180910390f35b3480156100b757600080fd5b506100d260048036038101906100cd9190610bcf565b61027e565b005b6100ee60048036038101906100e99190610c7a565b610417565b005b3480156100fc57600080fd5b5061010561075b565b6040516101129190610d09565b60405180910390f35b34801561012757600080fd5b50610142600480360381019061013d9190610c7a565b6107e9565b60405161015496959493929190610d92565b60405180910390f35b34801561016957600080fd5b506101726109dd565b60405161017f9190610d2b565b60405180910390f35b34801561019457600080fd5b506101af60048036038101906101aa9190610b93565b610a27565b6040516101bc9190610d2b565b60405180910390f35b3480156101d157600080fd5b506101da610a58565b6040516101e79190610d2b565b60405180910390f35b600080546101fd90610fa4565b80601f016020809104026020016040519081016040528092919081815260200182805461022990610fa4565b80156102765780601f1061024b57610100808354040283529160200191610276565b820191906000526020600020905b81548152906001019060200180831161025957829003601f168201915b505050505081565b600084511161028c57600080fd5b600082511161029a57600080fd5b600083116102a757600080fd5b6040518060c0016040528060025481526020018581526020018481526020018381526020018281526020013373ffffffffffffffffffffffffffffffffffffffff16815250600360006002548152602001908152602001600020600082015181600001556020820151816001019080519060200190610327929190610a5e565b5060408201518160020155606082015181600301908051906020019061034e929190610a5e565b50608082015181600401908051906020019061036b929190610a5e565b5060a08201518160050160006101000a81548173ffffffffffffffffffffffffffffffffffffffff021916908373ffffffffffffffffffffffffffffffffffffffff160217905550905050600260008154809291906103c990611007565b91905055507f2b2ebd45aa6e923e4a2d42c030a6255e869127eb5362a947ed84706a792fde7e600254858585853360405161040996959493929190610e08565b60405180910390a150505050565b6000600360008381526020019081526020016000206040518060c00160405290816000820154815260200160018201805461045190610fa4565b80601f016020809104026020016040519081016040528092919081815260200182805461047d90610fa4565b80156104ca5780601f1061049f576101008083540402835291602001916104ca565b820191906000526020600020905b8154815290600101906020018083116104ad57829003601f168201915b50505050508152602001600282015481526020016003820180546104ed90610fa4565b80601f016020809104026020016040519081016040528092919081815260200182805461051990610fa4565b80156105665780601f1061053b57610100808354040283529160200191610566565b820191906000526020600020905b81548152906001019060200180831161054957829003601f168201915b5050505050815260200160048201805461057f90610fa4565b80601f01602080910402602001604051908101604052809291908181526020018280546105ab90610fa4565b80156105f85780601f106105cd576101008083540402835291602001916105f8565b820191906000526020600020905b8154815290600101906020018083116105db57829003601f168201915b505050505081526020016005820160009054906101000a900473ffffffffffffffffffffffffffffffffffffffff1673ffffffffffffffffffffffffffffffffffffffff1673ffffffffffffffffffffffffffffffffffffffff1681525050905060008160a0015190508073ffffffffffffffffffffffffffffffffffffffff166108fc349081150290604051600060405180830381858888f193505050501580156106a8573d6000803e3d6000fd5b50600460003373ffffffffffffffffffffffffffffffffffffffff1673ffffffffffffffffffffffffffffffffffffffff1681526020019081526020016000208390806001815401808255809150506001900390600052602060002001600090919091909150557fa11e47d046e4d3dbc2056861a52aae8c7121c61d1ef01f11a17be988d5ef2f31600254836020015184604001513360405161074e9493929190610d46565b60405180910390a1505050565b6001805461076890610fa4565b80601f016020809104026020016040519081016040528092919081815260200182805461079490610fa4565b80156107e15780601f106107b6576101008083540402835291602001916107e1565b820191906000526020600020905b8154815290600101906020018083116107c457829003601f168201915b505050505081565b600360205280600052604060002060009150905080600001549080600101805461081290610fa4565b80601f016020809104026020016040519081016040528092919081815260200182805461083e90610fa4565b801561088b5780601f106108605761010080835404028352916020019161088b565b820191906000526020600020905b81548152906001019060200180831161086e57829003601f168201915b5050505050908060020154908060030180546108a690610fa4565b80601f01602080910402602001604051908101604052809291908181526020018280546108d290610fa4565b801561091f5780601f106108f45761010080835404028352916020019161091f565b820191906000526020600020905b81548152906001019060200180831161090257829003601f168201915b50505050509080600401805461093490610fa4565b80601f016020809104026020016040519081016040528092919081815260200182805461096090610fa4565b80156109ad5780601f10610982576101008083540402835291602001916109ad565b820191906000526020600020905b81548152906001019060200180831161099057829003601f168201915b5050505050908060050160009054906101000a900473ffffffffffffffffffffffffffffffffffffffff16905086565b6000600460003373ffffffffffffffffffffffffffffffffffffffff1673ffffffffffffffffffffffffffffffffffffffff16815260200190815260200160002080549050905090565b60046020528160005260406000208181548110610a4357600080fd5b90600052602060002001600091509150505481565b60025481565b828054610a6a90610fa4565b90600052602060002090601f016020900481019282610a8c5760008555610ad3565b82601f10610aa557805160ff1916838001178555610ad3565b82800160010185558215610ad3579182015b82811115610ad2578251825591602001919060010190610ab7565b5b509050610ae09190610ae4565b5090565b5b80821115610afd576000816000905550600101610ae5565b5090565b6000610b14610b0f84610ea3565b610e7e565b905082815260208101848484011115610b2c57600080fd5b610b37848285610f62565b509392505050565b600081359050610b4e816110ee565b92915050565b600082601f830112610b6557600080fd5b8135610b75848260208601610b01565b91505092915050565b600081359050610b8d81611105565b92915050565b60008060408385031215610ba657600080fd5b6000610bb485828601610b3f565b9250506020610bc585828601610b7e565b9150509250929050565b60008060008060808587031215610be557600080fd5b600085013567ffffffffffffffff811115610bff57600080fd5b610c0b87828801610b54565b9450506020610c1c87828801610b7e565b935050604085013567ffffffffffffffff811115610c3957600080fd5b610c4587828801610b54565b925050606085013567ffffffffffffffff811115610c6257600080fd5b610c6e87828801610b54565b91505092959194509250565b600060208284031215610c8c57600080fd5b6000610c9a84828501610b7e565b91505092915050565b610cac81610f2c565b82525050565b610cbb81610ef0565b82525050565b6000610ccc82610ed4565b610cd68185610edf565b9350610ce6818560208601610f71565b610cef816110dd565b840191505092915050565b610d0381610f22565b82525050565b60006020820190508181036000830152610d238184610cc1565b905092915050565b6000602082019050610d406000830184610cfa565b92915050565b6000608082019050610d5b6000830187610cfa565b8181036020830152610d6d8186610cc1565b9050610d7c6040830185610cfa565b610d896060830184610ca3565b95945050505050565b600060c082019050610da76000830189610cfa565b8181036020830152610db98188610cc1565b9050610dc86040830187610cfa565b8181036060830152610dda8186610cc1565b90508181036080830152610dee8185610cc1565b9050610dfd60a0830184610cb2565b979650505050505050565b600060c082019050610e1d6000830189610cfa565b8181036020830152610e2f8188610cc1565b9050610e3e6040830187610cfa565b8181036060830152610e508186610cc1565b90508181036080830152610e648185610cc1565b9050610e7360a0830184610ca3565b979650505050505050565b6000610e88610e99565b9050610e948282610fd6565b919050565b6000604051905090565b600067ffffffffffffffff821115610ebe57610ebd6110ae565b5b610ec7826110dd565b9050602081019050919050565b600081519050919050565b600082825260208201905092915050565b6000610efb82610f02565b9050919050565b600073ffffffffffffffffffffffffffffffffffffffff82169050919050565b6000819050919050565b6000610f3782610f3e565b9050919050565b6000610f4982610f50565b9050919050565b6000610f5b82610f02565b9050919050565b82818337600083830152505050565b60005b83811015610f8f578082015181840152602081019050610f74565b83811115610f9e576000848401525b50505050565b60006002820490506001821680610fbc57607f821691505b60208210811415610fd057610fcf61107f565b5b50919050565b610fdf826110dd565b810181811067ffffffffffffffff82111715610ffe57610ffd6110ae565b5b80604052505050565b600061101282610f22565b91507fffffffffffffffffffffffffffffffffffffffffffffffffffffffffffffffff82141561104557611044611050565b5b600182019050919050565b7f4e487b7100000000000000000000000000000000000000000000000000000000600052601160045260246000fd5b7f4e487b7100000000000000000000000000000000000000000000000000000000600052602260045260246000fd5b7f4e487b7100000000000000000000000000000000000000000000000000000000600052604160045260246000fd5b6000601f19601f8301169050919050565b6110f781610ef0565b811461110257600080fd5b50565b61110e81610f22565b811461111957600080fd5b5056fea26469706673582212209b9e72a045d1fabacf9d4581500ac5cac5fc155fdff775d388d4c7c6df5f87ce64736f6c63430008040033",
  "linkReferences": {},
  "deployedLinkReferences": {}
}