{
  "_format": "hh-sol-artifact-1",
  "contractName": "Marketplace",
  "sourceName": "contracts/Marketplace.sol",
  "abi": [
    {
      "inputs": [],
      "stateMutability": "nonpayable",
      "type": "constructor"
    },
    {
      "anonymous": false,
      "inputs": [
        {
          "indexed": false,
          "internalType": "uint256",
          "name": "id",
          "type": "uint256"
        },
        {
          "indexed": false,
          "internalType": "string",
          "name": "name",
          "type": "string"
        },
        {
          "indexed": false,
          "internalType": "uint256",
          "name": "price",
          "type": "uint256"
        },
        {
          "indexed": false,
          "internalType": "address",
          "name": "seller",
          "type": "address"
        }
      ],
      "name": "ProductCreated",
      "type": "event"
    },
    {
      "anonymous": false,
      "inputs": [
        {
          "indexed": false,
          "internalType": "uint256",
          "name": "id",
          "type": "uint256"
        },
        {
          "indexed": false,
          "internalType": "string",
          "name": "name",
          "type": "string"
        },
        {
          "indexed": false,
          "internalType": "uint256",
          "name": "price",
          "type": "uint256"
        },
        {
          "indexed": false,
          "internalType": "address",
          "name": "seller",
          "type": "address"
        }
      ],
      "name": "ProductPurchased",
      "type": "event"
    },
    {
      "inputs": [
        {
          "internalType": "string",
          "name": "_name",
          "type": "string"
        },
        {
          "internalType": "uint256",
          "name": "_price",
          "type": "uint256"
        }
      ],
      "name": "createProduct",
      "outputs": [],
      "stateMutability": "nonpayable",
      "type": "function"
    },
    {
      "inputs": [],
      "name": "getAllProducts",
      "outputs": [
        {
          "components": [
            {
              "internalType": "uint256",
              "name": "id",
              "type": "uint256"
            },
            {
              "internalType": "string",
              "name": "name",
              "type": "string"
            },
            {
              "internalType": "uint256",
              "name": "price",
              "type": "uint256"
            },
            {
              "internalType": "address",
              "name": "seller",
              "type": "address"
            }
          ],
          "internalType": "struct Marketplace.Product[]",
          "name": "",
          "type": "tuple[]"
        }
      ],
      "stateMutability": "view",
      "type": "function"
    },
    {
      "inputs": [],
      "name": "name",
      "outputs": [
        {
          "internalType": "string",
          "name": "",
          "type": "string"
        }
      ],
      "stateMutability": "view",
      "type": "function"
    },
    {
      "inputs": [],
      "name": "productCount",
      "outputs": [
        {
          "internalType": "uint256",
          "name": "",
          "type": "uint256"
        }
      ],
      "stateMutability": "view",
      "type": "function"
    },
    {
      "inputs": [
        {
          "internalType": "uint256",
          "name": "",
          "type": "uint256"
        }
      ],
      "name": "products",
      "outputs": [
        {
          "internalType": "uint256",
          "name": "id",
          "type": "uint256"
        },
        {
          "internalType": "string",
          "name": "name",
          "type": "string"
        },
        {
          "internalType": "uint256",
          "name": "price",
          "type": "uint256"
        },
        {
          "internalType": "address",
          "name": "seller",
          "type": "address"
        }
      ],
      "stateMutability": "view",
      "type": "function"
    },
    {
      "inputs": [
        {
          "internalType": "uint256",
          "name": "_id",
          "type": "uint256"
        }
      ],
      "name": "purchaseProduct",
      "outputs": [],
      "stateMutability": "payable",
      "type": "function"
    }
  ],
  "bytecode": "0x608060405260006001553480156200001657600080fd5b506040518060400160405280601281526020017f41706f6c6c6f204d61726b6574706c616365000000000000000000000000000081525060009080519060200190620000649291906200006b565b5062000180565b82805462000079906200011b565b90600052602060002090601f0160209004810192826200009d5760008555620000e9565b82601f10620000b857805160ff1916838001178555620000e9565b82800160010185558215620000e9579182015b82811115620000e8578251825591602001919060010190620000cb565b5b509050620000f89190620000fc565b5090565b5b8082111562000117576000816000905550600101620000fd565b5090565b600060028204905060018216806200013457607f821691505b602082108114156200014b576200014a62000151565b5b50919050565b7f4e487b7100000000000000000000000000000000000000000000000000000000600052602260045260246000fd5b61108080620001906000396000f3fe6080604052600436106100555760003560e01c806302ee3a521461005a57806306fdde031461008557806338e76a03146100b05780637acc0b20146100cc578063e0f6ef871461010c578063e9300c6c14610137575b600080fd5b34801561006657600080fd5b5061006f610160565b60405161007c9190610c82565b60405180910390f35b34801561009157600080fd5b5061009a6102bb565b6040516100a79190610ca4565b60405180910390f35b6100ca60048036038101906100c59190610ab0565b610349565b005b3480156100d857600080fd5b506100f360048036038101906100ee9190610ab0565b61057f565b6040516101039493929190610ce1565b60405180910390f35b34801561011857600080fd5b50610121610657565b60405161012e9190610cc6565b60405180910390f35b34801561014357600080fd5b5061015e60048036038101906101599190610a5c565b61065d565b005b60606003805480602002602001604051908101604052809291908181526020016000905b828210156102b25783829060005260206000209060040201604051806080016040529081600082015481526020016001820180546101c190610ee9565b80601f01602080910402602001604051908101604052809291908181526020018280546101ed90610ee9565b801561023a5780601f1061020f5761010080835404028352916020019161023a565b820191906000526020600020905b81548152906001019060200180831161021d57829003601f168201915b50505050508152602001600282015481526020016003820160009054906101000a900473ffffffffffffffffffffffffffffffffffffffff1673ffffffffffffffffffffffffffffffffffffffff1673ffffffffffffffffffffffffffffffffffffffff168152505081526020019060010190610184565b50505050905090565b600080546102c890610ee9565b80601f01602080910402602001604051908101604052809291908181526020018280546102f490610ee9565b80156103415780601f1061031657610100808354040283529160200191610341565b820191906000526020600020905b81548152906001019060200180831161032457829003601f168201915b505050505081565b6103876040518060400160405280601481526020017f5374617274696e672070757263686173652e2e2e00000000000000000000000081525061087a565b600060026000838152602001908152602001600020604051806080016040529081600082015481526020016001820180546103c190610ee9565b80601f01602080910402602001604051908101604052809291908181526020018280546103ed90610ee9565b801561043a5780601f1061040f5761010080835404028352916020019161043a565b820191906000526020600020905b81548152906001019060200180831161041d57829003601f168201915b50505050508152602001600282015481526020016003820160009054906101000a900473ffffffffffffffffffffffffffffffffffffffff1673ffffffffffffffffffffffffffffffffffffffff1673ffffffffffffffffffffffffffffffffffffffff168152505090506000816060015190508073ffffffffffffffffffffffffffffffffffffffff166108fc349081150290604051600060405180830381858888f193505050501580156104f4573d6000803e3d6000fd5b507fa11e47d046e4d3dbc2056861a52aae8c7121c61d1ef01f11a17be988d5ef2f3160015483602001518460400151336040516105349493929190610d2d565b60405180910390a161057a6040518060400160405280601281526020017f507572636861736520636f6d706c65746564000000000000000000000000000081525061087a565b505050565b60026020528060005260406000206000915090508060000154908060010180546105a890610ee9565b80601f01602080910402602001604051908101604052809291908181526020018280546105d490610ee9565b80156106215780601f106105f657610100808354040283529160200191610621565b820191906000526020600020905b81548152906001019060200180831161060457829003601f168201915b5050505050908060020154908060030160009054906101000a900473ffffffffffffffffffffffffffffffffffffffff16905084565b60015481565b600082511161066b57600080fd5b6000811161067857600080fd5b6001600081548092919061068b90610f4c565b9190505550604051806080016040528060015481526020018381526020018281526020013373ffffffffffffffffffffffffffffffffffffffff1681525060026000600154815260200190815260200160002060008201518160000155602082015181600101908051906020019061070492919061093c565b506040820151816002015560608201518160030160006101000a81548173ffffffffffffffffffffffffffffffffffffffff021916908373ffffffffffffffffffffffffffffffffffffffff1602179055509050506003604051806080016040528060015481526020018481526020018381526020013373ffffffffffffffffffffffffffffffffffffffff1681525090806001815401808255809150506001900390600052602060002090600402016000909190919091506000820151816000015560208201518160010190805190602001906107e392919061093c565b506040820151816002015560608201518160030160006101000a81548173ffffffffffffffffffffffffffffffffffffffff021916908373ffffffffffffffffffffffffffffffffffffffff16021790555050507f2e87df3c8f53fb06266ed52023929f5fab9f24130224ef6538b665d9cac8253060015483833360405161086e9493929190610d2d565b60405180910390a15050565b6109108160405160240161088e9190610ca4565b6040516020818303038152906040527f41304fac000000000000000000000000000000000000000000000000000000007bffffffffffffffffffffffffffffffffffffffffffffffffffffffff19166020820180517bffffffffffffffffffffffffffffffffffffffffffffffffffffffff8381831617835250505050610913565b50565b60008151905060006a636f6e736f6c652e6c6f679050602083016000808483855afa5050505050565b82805461094890610ee9565b90600052602060002090601f01602090048101928261096a57600085556109b1565b82601f1061098357805160ff19168380011785556109b1565b828001600101855582156109b1579182015b828111156109b0578251825591602001919060010190610995565b5b5090506109be91906109c2565b5090565b5b808211156109db5760008160009055506001016109c3565b5090565b60006109f26109ed84610d9e565b610d79565b905082815260208101848484011115610a0a57600080fd5b610a15848285610ea7565b509392505050565b600082601f830112610a2e57600080fd5b8135610a3e8482602086016109df565b91505092915050565b600081359050610a5681611033565b92915050565b60008060408385031215610a6f57600080fd5b600083013567ffffffffffffffff811115610a8957600080fd5b610a9585828601610a1d565b9250506020610aa685828601610a47565b9150509250929050565b600060208284031215610ac257600080fd5b6000610ad084828501610a47565b91505092915050565b6000610ae58383610c01565b905092915050565b610af681610e71565b82525050565b610b0581610e35565b82525050565b610b1481610e35565b82525050565b6000610b2582610ddf565b610b2f8185610e02565b935083602082028501610b4185610dcf565b8060005b85811015610b7d5784840389528151610b5e8582610ad9565b9450610b6983610df5565b925060208a01995050600181019050610b45565b50829750879550505050505092915050565b6000610b9a82610dea565b610ba48185610e13565b9350610bb4818560208601610eb6565b610bbd81611022565b840191505092915050565b6000610bd382610dea565b610bdd8185610e24565b9350610bed818560208601610eb6565b610bf681611022565b840191505092915050565b6000608083016000830151610c196000860182610c64565b5060208301518482036020860152610c318282610b8f565b9150506040830151610c466040860182610c64565b506060830151610c596060860182610afc565b508091505092915050565b610c6d81610e67565b82525050565b610c7c81610e67565b82525050565b60006020820190508181036000830152610c9c8184610b1a565b905092915050565b60006020820190508181036000830152610cbe8184610bc8565b905092915050565b6000602082019050610cdb6000830184610c73565b92915050565b6000608082019050610cf66000830187610c73565b8181036020830152610d088186610bc8565b9050610d176040830185610c73565b610d246060830184610b0b565b95945050505050565b6000608082019050610d426000830187610c73565b8181036020830152610d548186610bc8565b9050610d636040830185610c73565b610d706060830184610aed565b95945050505050565b6000610d83610d94565b9050610d8f8282610f1b565b919050565b6000604051905090565b600067ffffffffffffffff821115610db957610db8610ff3565b5b610dc282611022565b9050602081019050919050565b6000819050602082019050919050565b600081519050919050565b600081519050919050565b6000602082019050919050565b600082825260208201905092915050565b600082825260208201905092915050565b600082825260208201905092915050565b6000610e4082610e47565b9050919050565b600073ffffffffffffffffffffffffffffffffffffffff82169050919050565b6000819050919050565b6000610e7c82610e83565b9050919050565b6000610e8e82610e95565b9050919050565b6000610ea082610e47565b9050919050565b82818337600083830152505050565b60005b83811015610ed4578082015181840152602081019050610eb9565b83811115610ee3576000848401525b50505050565b60006002820490506001821680610f0157607f821691505b60208210811415610f1557610f14610fc4565b5b50919050565b610f2482611022565b810181811067ffffffffffffffff82111715610f4357610f42610ff3565b5b80604052505050565b6000610f5782610e67565b91507fffffffffffffffffffffffffffffffffffffffffffffffffffffffffffffffff821415610f8a57610f89610f95565b5b600182019050919050565b7f4e487b7100000000000000000000000000000000000000000000000000000000600052601160045260246000fd5b7f4e487b7100000000000000000000000000000000000000000000000000000000600052602260045260246000fd5b7f4e487b7100000000000000000000000000000000000000000000000000000000600052604160045260246000fd5b6000601f19601f8301169050919050565b61103c81610e67565b811461104757600080fd5b5056fea2646970667358221220fcc521c8cddb4968e4a97c48212396c281433e1fc61c49df4dabdb21f0788c5a64736f6c63430008040033",
  "linkReferences": {},
  "deployedLinkReferences": {}
}